:100000000C943A000C9444000C9444000C9444006A
:100010000C9444000C9444000C9444000C94440050
:100020000C9444000C9444000C9444000C94440040
:100030000C9444000C9444000C9444000C94440030
:100040000C9444000C9444000C9444000C94440020
:100050000C9444000C9444000C9444000C94440010
:100060000C9444000C9444000C9444000C94440000
:100070000C94440011241FBECFEFD2E0DEBFCDBFF1
:100080000E9466000C947C000C940000259A269A2D
:10009000279A87B117B888B1806C88B9089526B1BE
:1000A00030E0282381E090E0232B09F080E00895E0
:1000B0006130704010F029F0089595B1982395B9FA
:1000C000089595B18095892B85B908950E944600C1
:1000D000369906C0379904C02F9A2E982D98F8CFDC
:1000E000379902C02D9AF4CF369902C02E9AF0CFDC
:0C00F0002E982D982F98ECCFF894FFCF9D
:00000001FF
