:100000000C943A000C9444000C9444000C9444006A
:100010000C9444000C9444000C9444000C94440050
:100020000C9444000C9444000C9444000C94440040
:100030000C9444000C9444000C9444000C94440030
:100040000C9444000C9444000C9444000C94440020
:100050000C9444000C9444000C9444000C94440010
:100060000C9444000C9444000C9444000C94440000
:100070000C94440011241FBECFEFD2E0DEBFCDBFF1
:100080000E9446000C9466000C940000259A269A63
:10009000279A82E390E02D9A2E9A2F9A2FEF30E73D
:1000A00042E0215030404040E1F700C000002D9870
:1000B0002E982F982FEF30E742E0215030404040FB
:1000C000E1F700C00000019731F70895F894FFCFE1
:00000001FF
